:020000040800F2
:10000000C838002011030008E55C0008D556000838
:10001000ED5B0008BD1700084188000800000000E3
:100020000000000000000000000000005D5F00080C
:10003000C11E000800000000795D0008615F000833
:100040002B0300082B0300082B0300087D5D00082C
:100050002B0300082B0300082B0300082B030008C8
:100060002B0300082B0300082B0300082B030008B8
:100070002B0300082B0300082B0300082B030008A8
:100080002B0300082B030008B11700080000000034
:100090000000000000000000000000002B0300082A
:1000A0002B0300082B0300082B0300082B03000878
:1000B0002B0300082D6000082B0300082B03000809
:1000C0002B0300082B0300082B030008255E000803
:1000D0002B0300082B0300082B030008000000007E
:1000E0002B0300082B0300082B030008000000006E
:1000F0000000000000000000000000002B030008CA
:10010000000000002B0300082B0300082B0300084D
:1001100000000000000000000000000000000000DF
:10012000B51E00082B0300082B0300082B03000852
:100130002B03000800000000000000000000000089
:10014000000000000000000000000000E95C000862
:100150002B0300082B0300082B0300082B030008C7
:100160002B0300082B030008000000000000000023
:10017000000000000000000000000000000000007F
:1001800000000000A11F00080000000000000000A7
:100190002B0300082B03000800F002F800F0A8F879
:1001A00014A696E8000CB244B344DA4501D100F03D
:1001B0009FF8BAE80F000FA696E83000A5EB0405FB
:1001C00004EB0607AAEB0704A7F101074FEA151590
:1001D0004FEA3414A4F10104AC4201D300F088F8D2
:1001E00013F0010F18BFFB1A43F0010300F001F8F0
:1001F000DBE71847609B0000809B0000103A24BF9B
:1002000078C878C1FAD8520724BF30C830C144BF7B
:1002100004680C6070470000704700000023002451
:1002200000250026103A28BF78C1FBD8520728BF06
:1002300030C148BF0B6070476E2900F07F82702983
:1002400000F0C383662909F0F684652909F0F38478
:10025000672909F0F084612909F0EF8403681B0A1B
:1002600028BF41F08001692900F02C82642900F048
:100270002982752900F026826F2900F051837829A0
:1002800000F08F83E92900F0EB82E42900F0E88296
:10029000F52900F0E582EF2900F04E83F82900F0FF
:1002A0008E830368DB0928BF41F08001632901F0D8
:1002B0009380732901F09880E32901F0A380F3294A
:1002C00001F0A880002070471FB509F0A7FC00F0DE
:1002D00093F904000020002109F074FC401C6060C8
:1002E0000020002109F084FCE0601FBD10B510BDA6
:1002F00001F0F8F81146FFF7E7FF09F015F801F0F3
:10030000C9F903B4FFF7F2FF03BC01F0CDF9000017
:100310000948804709480047FEE7FEE7FEE7FEE799
:10032000FEE7FEE7FEE7FEE7FEE7FEE704480549D5
:10033000054A064B70470000196000089901000843
:10034000C8320020C8380020C8340020C83400203B
:1003500010B500F051F9001D10BD00BF69980000F4
:1003600053EA020C00F069802DE9F04B4FF00006D3
:10037000002B1FBFB3FA83F503FA05F424FA05F640
:100380005E4012BF1643B2FA82F502FA05F4C5F1D7
:1003900020051EBF22FA05FC44EA0C04203556EA6B
:1003A000044C4FEA144418BF641C4FF000084FF08F
:1003B0000009904271EB030C39D3002919BFB1FA3F
:1003C00081F701FA07F6B0FA80F700FA07F6C7F1ED
:1003D00020071EBF20FA07FC46EA0C062037B6FBB2
:1003E000F4FCA7EB0507103F07F01F0BCBF120062D
:1003F0002CFA06F60CFA0BFB44BFB3460026202F5E
:10040000A4BF5E464FF0000B5BEA060C08BF4FF03E
:10041000010B19EB0B0948EB0608ABFB027C06FB52
:1004200002CC0BFB03CCC01B71EB0C01C1E70B46EC
:10043000024641464846BDE8F08B13B5084318BF55
:100440004FF0FF300146AFF30080BDE81C4070471D
:100450007CB51D4616460C00009007D04142A142D3
:1004600002D32044401E01E04FF0FF30064B7B4496
:100470002A4669460190304600F079F9002C02D0F6
:10048000009A002111707CBD2303000030B50546A1
:100490000B462A4613F8014B12F8010B08B1A04293
:1004A000F8D01CB1002802D06D1CF1E7284630BD01
:1004B00040EA010310B59B070FD1042A0DD310C8E1
:1004C00008C9121F9C42F8D020BA19BA884201D933
:1004D000012010BD4FF0FF3010BD1AB1D30703D07B
:1004E000521C07E0002010BD10F8013B11F8014B31
:1004F0001B1B07D110F8013B11F8014B1B1B01D14D
:10050000921EF1D1184610BD4FF000020429C0F030
:10051000128010F0030C00F01B80CCF1040CBCF135
:10052000020F18BF00F8012BA8BF20F8022BA1EB87
:100530000C0100F00DB85FEAC17C24BF00F8012B6C
:1005400000F8012B48BF00F8012B70474FF0000264
:1005500000B5134694469646203922BFA0E80C50B9
:10056000A0E80C50B1F12001BFF4F7AF090728BF94
:10057000A0E80C5048BF0CC05DF804EB890028BF10
:1005800040F8042B08BF704748BF20F8022B11F039
:10059000804F18BF00F8012B704710B5044610F0CB
:1005A000030F08BF11F0030F40F015804FF0013E1C
:1005B000121FC0F20E8051F8043BA3EB0E0C2CEA84
:1005C000030C1CEACE1C08BF40F8043BF0D0A1F19C
:1005D000040102F10402521E08DB11F8013B00F88D
:1005E000013B002BF7D11146FFF78EFF204610BDCF
:1005F000704770477047000000487047180100209E
:1006000070B5044685690068C10601D5302600E052
:100610002026C00707D070BDD4E90121304690479D
:10062000206A401C20626D1EF6D570BD70B5044670
:1006300085690078C00707D170BDD4E90121202069
:100640009047206A401C20626D1EF6D570BD096877
:100650004A0501D540B27047C905FCD500B27047C4
:1006600009684A0501D5C0B27047C905FCD580B2FA
:10067000704770B50C460546012A05D028788006DB
:1006800000D5EA69002302E0012305E05B1C9342E8
:1006900002D2E05C0028F9D1A869E618C01AA86166
:1006A000286A184428622846FFF7AAFF04E0D5E923
:1006B000012114F8010B9047B442F8D32846FFF704
:1006C000B5FF70BD2DE9F04106460024106875297C
:1006D000314616A510D0FFF7BAFF002802DA4042D3
:1006E00013A507E031688A0701D512A502E0490782
:1006F00004D511A5012401E0FFF7B2FF00210A2271
:1007000006F1240709E0B0FBF2FCB0FBF2F302FBB8
:100710001C00303078541846491C0028F3D1234679
:100720002A463046BDE8F04100F067BA00000000FC
:100730002D0000002B00000020000000116802685E
:10074000006A530501D508700AE0D30501D5088079
:1007500006E0130603D5C217C1E9000200E00860F5
:100760000120704701694A1C02610878704700B592
:100770008FB0CDE901310021059105497944CDE9DA
:1007800003101146684600F02BF90FB000BD0000C1
:10079000E5FFFFFFD1E900239A4202D2531C0B6010
:1007A000107070472DE9FF5F15468A460446DFF852
:1007B000AC80F8440027D8E900103E46CDE900108F
:1007C00010E03AF816106A4602A800F027FE411C15
:1007D00007D02178890603D5E269391891420DD8EE
:1007E0000744761C2078800602D5E069B84205DD12
:1007F000AE42E6DB3AF816000028E2D1A069C01B41
:10080000A0612046FFF7FCFED8E90010CDE90010FA
:10081000002017E03AF818106A4602A800F0FEFD22
:10082000B0F1FF3F81460BD000250DF1080B05E02C
:10083000D4E901211BF8050090476D1C4D45F7D305
:1008400008F10100B0428046E4DB206A38442062AF
:100850002046FFF7EBFEBDE8FF9F00008A940000F2
:100860002DE9F0418046D21D22F007020025D2E991
:100870000002F52915A614D0011E72F1000106DA56
:100880000023D0EB030063EB020211A608E0D8F8C6
:1008900000108B0701D50FA602E0490701D50EA66F
:1008A00001251146002408F1240704E000F060F956
:1008B00030323A55641C50EA0102F7D12B463246D9
:1008C00021464046BDE8F04100F097B90000000025
:1008D0002D0000002B0000002000000030B400219B
:1008E00000F1240408E002F00705D208303542EA9E
:1008F0004372DB086554491C52EA0305F3D10468CE
:10090000002310A2250708D504F020040C4304D0CE
:10091000C46901230CA2641EC46130BC00F06DB92F
:1009200010B5044621461068FFF79AFE024620469D
:10093000BDE810400023D1E7D21D22F00701D1E924
:100940000023CBE70000000030000000F0B40D46AB
:100950000188090502D5214C7C4402E01F4C7C44EF
:100960000E34002100F1240608E002F00F071209FE
:10097000E75D42EA03721B097754491C52EA0307F8
:10098000F3D102780023120704D5702D06D009B1E7
:10099000022311342246F0BC00F02FB90123103499
:1009A000F8E770B504460D4621461068FFF758FE7B
:1009B000024629462046BDE870400023C6E7D21D06
:1009C00022F00703D3E90023C0E70368126843F06D
:1009D000200303600823C3610023B7E7EC92000003
:1009E0002DE9F05F894604464FF0000ADFF874B144
:1009F000FB44C0F820A02046E1688847002874D056
:100A0000252806D0D4E901219047206A401C2062A5
:100A1000F1E700265F462046E16888472028054622
:100A200007DB312D05D2781910F8200C08B10643E8
:100A3000F1E7B00701D526F00406C4F81CA0002792
:100A4000C4F818A02A2D09D0284609F0B3F838B305
:100A500004EB8708303DC8F8185019E059F8041B1A
:100A6000204604EB87029161E1688847012F054623
:100A700018D1E069002820DA26F020061DE0D8F819
:100A8000180000EB800005EB40003038C8F8180073
:100A90002046E1688847054609F08CF80028EED129
:100AA000012F0AD02E2D08D12046E16888477F1CEF
:100AB0000546022F46F02006C4DBA069002803DAB1
:100AC000404246F00106A061F00701D026F0100672
:100AD0006C2D0BD0682D09D04C2D39D06A2D35D016
:100AE000742D35D07A2D33D016E038E0E1682F46EA
:100AF00020468847B842054609D16C2F26D04FF4CE
:100B00008060E168064320468847054604E06C2F74
:100B10001AD04FF4807006430DB3A5F14100192897
:100B200002D8203546F400664A462946204626600B
:100B30004E46FFF781FB80B101280BD0F61D26F051
:100B4000070000F1080956E74020E4E78020D8E7D5
:100B50000020D6E706F104094DE7284652E7206A4F
:100B6000BDE8F09F7C92000000487047F80000202C
:100B700030B5B0F10A0271F100034FEA900E4EEA6F
:100B8000817EB0EB0E0061EB91014FEA101E4EEA40
:100B9000017E10EB0E0041EB11114FEA102E4EEAD0
:100BA000016E10EB0E0041EB11214FEA104E4EEAA0
:100BB000014E10EB0E0041EB1141401841F10001D4
:100BC0004FEAD00040EA41704FEAD1014FEA810478
:100BD00044EA907410EB800544EB01046D1944EB7A
:100BE0000404521BA3414FF0000348BF0A3200D552
:100BF00030BD401C41F1000130BD2DE9F0470D46EC
:100C000099469246044600F124080168880604D5F6
:100C1000E06921F01001216000E00120A84201DD1F
:100C2000471B00E00027A1697A1902EB0900081AA6
:100C3000A0612078C00602D42046FFF7E1FC002620
:100C400008E0D4E901211AF806009047206A401C08
:100C5000761C20624E45F4DB2078C0060AD520467B
:100C6000FFF7CEFC06E0D4E9012130209047206A4E
:100C7000401C2062381EA7F10107F4DC07E0D4E92C
:100C8000012118F805009047206A401C2062281EA8
:100C9000A5F10105F3DC2046FFF7C8FC207800062B
:100CA00002D50220BDE8F0870120FBE72DE9FF4FC8
:100CB0000C461E464FF0FF378BB0D2E90001DDF83D
:100CC00060800A908A46C1F30A5505B93D46002165
:100CD00008464FF00000BAF1000F00F4400005DABA
:100CE00000EB80004FF4400101EA50004FEA9059B8
:100CF000B9F1010F00DDB9460A9850EA4A000ED05A
:100D000044F61050A5F2FF3545432F14B8F1000FFB
:100D10001ED07542291E1EDDC9F100021CE0B8F18B
:100D2000010F4FF0000001D0302103E0F24305E055
:100D30002154401CB042FBDB3046002200212154EC
:100D40000B99C1F80880C1E900200FB0BDE8F08F11
:100D5000BD1B6D1CDEE74A4600DA694206A800F0BA
:100D600027FC06AB93E8070003AB83E80700504677
:100D70000A9908F03EFB8DE80700A0F500501F38E7
:100D800000900398002D0ADD42F21F014A460844F4
:100D9000002303A90390684608F0A8FD09E0A0F528
:100DA00000504A461F38002303A90390684608F004
:100DB000B2FD8DE807000004000C03D04FF0FF30B7
:100DC000410800E01046B8F1000F03D00022009265
:100DD00015461EE0751E05D4FFF7CAFE3032625577
:100DE0006D1EF9D5B3460122084302D000227F1CB4
:100DF00004E02078302801D100227F1E002A0997C4
:100E000084D01DE0112D07DAFFF7B2FE30326255B3
:100E10006D1C50EA0102F5D1084302D00098C8B118
:100E20000EE00021681E05E0235C625C63542254DE
:100E3000401E491C8142F7DBAB46A81B401E0990AF
:100E4000002004F80B000B98099AC0F80880C0E94C
:100E5000002B7AE711264FF0000857E72DE9F04FF5
:100E600088460446D21D22F0070191B0D1E9000165
:100E7000CDE90A0108F086FE02460B98C00F01D0AA
:100E80002D2007E02068810701D52B2002E02021DA
:100E900001EAC000032A099001D0072A05DB0346B6
:100EA0004146204600F044FB0BE12078800601D546
:100EB000E06900E00620B8F1650F814606D0B8F180
:100EC000660F18D0B8F1670F70D131E00020B9F18A
:100ED000110F009001DB112301E009F101030AAABF
:100EE00001A90CA8FFF7E2FEDDE90C70002609F16C
:100EF0000105834647E001204B4600904FF0004734
:100F00000AAA01A90CA8FFF7D1FEDDE90DB00C99E2
:100F10005D46002610B909F101000D18B9EB050076
:100F200003D4C0F1FF3609F10105A5EB09002BE060
:100F3000B9F1010F01DA4FF001090020B9F1110FE9
:100F40000090484601DD112300E003460AAA01A9EA
:100F50000CA8FFF7ABFEDDE90C704D46002683467A
:100F6000207800070AD4AB4500DA5D4601A8012DC0
:100F700004DD411911F8011C302907D04F4502DA70
:100F800017F1040F04DA012082460FE06D1EEEE730
:100F9000002F02DCED1B3E4403E0781CA84200DD7C
:100FA0007D1CB81B00F1010A4FF0004720780007B4
:100FB00003D4AA4501DB4FF0FF3A0021B7F1004FFF
:100FC0000DF143088DF8431024D002202B23002F6D
:100FD00001DA7F422D230A21021EA0F1010000DC6C
:100FE0005FB197FBF1FC97FBF1F201FB1C7C17460C
:100FF0000CF1300C08F801CDEEE7A8F10100037008
:101000002188090501D5452100E06521A0F10108ED
:1010100000F8011C09980FA9A1EB0807FF1D00B1FA
:101020000120411901EBEA70A1693844081A401EF9
:10103000A0612078C00602D42046FFF7E1FA0998A3
:1010400028B1D4E901219047206A401C2062207811
:10105000C00622D52046FFF7D3FA1EE0002E04DB9F
:10106000B34502DD01A8805D00E03020D4E9012114
:101070009047206A401C2062761CAAF101005FEABA
:10108000000A0AD1FFF7B8FAC0680168405CD4E9E9
:1010900001219047206A401C2062281EA5F101050D
:1010A000DCDC07E0D4E9012118F8010B9047206A45
:1010B000401C2062381EA7F10107F3DC2046FFF731
:1010C000B5FA032011B041E62DE9F04F04460D4674
:1010D000D21D22F0070089B0D0E900974846394672
:1010E00008F050FD0246F80F01D02D2307E02068DC
:1010F000810701D52B2302E0202101EAC0038DF8EE
:1011000020300BB1012000E00020032A824601D0EC
:10111000072A04DB2946204600F00AFA3FE120783E
:10112000800601D40D2500E0E569C7F30A560D2DB0
:1011300049DA00214FEA175B08464FF00000002F04
:1011400000F4400007DA00EB80004FF4400100EBB0
:10115000D07001EA60008115012901DD4FF0FF31F7
:1011600000224FEA850CBCF1180F06D31346ACF1F0
:1011700018004FF08052C24003E04FF4801323FA6E
:101180000CF30CF10C0CBCF1200F04D3ACF1200CCF
:1011900009FA0CF001E007FA0CF000294FF00048C2
:1011A00001DD18B90FE00ED140450CD319EB02094F
:1011B0005F4121B9404502D19F4329EA0209BBEBB7
:1011C000175F00D0761C2088000502D57B48784444
:1011D00002E07A487844193808AA302302F80A3025
:1011E000037C0AF10101002E0AF1020A53546A46F7
:1011F00002DC4FF0300101E04FF031014FF0010807
:101200008DF8001002D0A6F2FF3603E059EA47013C
:1012100000D06B4E002D02DC2178090704D54FF079
:1012200002082E218DF80110C44600210BE0C7F3FF
:1012300003433F01C35C491C6D1E02F808300529B9
:1012400008F1010801DA002DF1DC00210CE000EBCF
:101250001973491C1B786D1E082902F808304FEAE3
:10126000091908F1010801DA002DF0DC21688B066C
:1012700002D516E0A8F10108E04505DD02EB080300
:1012800013F8013C302BF5D0B8F1000F09DD02EB6B
:10129000080313F8013C2E2B03D1090701D4A8F150
:1012A0000108002D05DD3E2102F808106D1E08F131
:1012B0000108407C002E02F8080008F1010804DA59
:1012C0002D20764202F8080002E02B2002F80800E8
:1012D0000A214FF47A70864208F101080BDB96FB75
:1012E000F0F3303302F8083096FBF0F308F1010810
:1012F00000FB136601E0642E0CDB642096FBF0F328
:10130000303302F8083096FBF0F308F1010800FBD7
:10131000136601E00A2E06DB96FBF1F0303002F88E
:10132000080008F1010896FBF1F001FB1060303075
:1013300002F80800A16908F1010808EB050202EBB8
:101340000A00081AA0612078C00602D42046FFF7E0
:1013500057F9216A08AE01EB0A00206204E0D4E9E3
:10136000012116F8010B9047BAF1010AF7D2207853
:10137000C00602D52046FFF743F96E4609E016F88D
:10138000010B3E280FD0D4E901219047206A401C70
:101390002062B8F10108F2D22046FFF747F909B000
:1013A0000320BDE8F08F206A2844206203E0D4E9DE
:1013B0000121302090476D1EEBD3F8E7C28A000070
:1013C00002FCFFFF10B5436913B1AFF3008001E0E9
:1013D000FFF74FF9012010BD127800F124010A70C7
:1013E00000224A700122EDE711684FF0FF32E9E771
:1013F00010B5436913B1AFF3008001E0FFF7D2F9F4
:10140000012010BD128800F1240182840022C284D0
:101410000122EDE711684FF0FF32E9E72DE9F041D5
:1014200016460C460546FEF793FF036893F8010144
:10143000012807D0FF2C12D8185D80B101202C7034
:10144000BDE8F081D3F807013246214603F20713C5
:10145000C7182846BC46BDE8F041002360474FF05E
:10146000FF30EDE70000000030B44FF0013C50F8D1
:10147000042B51F8043BCCFA52F4D51A20D1FCB914
:1014800050F8042B51F8043BCCFA52F4D51A17D17A
:10149000B4B950F8042B51F8043BCCFA52F4D51AE5
:1014A0000ED16CB950F8042B51F8043BCCFA52F42D
:1014B000D51A05D1002CDAD030BC4FF000007047AF
:1014C00029BAB1FA81F111F01801D1F1200084405C
:1014D000F2D1CA40CB4012F0FF0213F0FF0330BC40
:1014E000D01A70477546FFF73FFBAE4605006946C8
:1014F000534620F00700854618B020B5FEF716FFCA
:10150000BDE820404FF000064FF000074FF0000804
:101510004FF0000BAC46ACE8C009ACE8C009ACE841
:10152000C009ACE8C00921F007018D4670470000F2
:101530002DE9F0411F46044603260168072A01F4FD
:10154000006004DB08B116A505E016A503E008B1AC
:1015500015A500E015A521F010002060A069C01EAF
:10156000A0610FB1401EA0612046FFF749F84FB1BE
:10157000D4E9012138469047206A401C2062C01CF3
:10158000206206E0206AFAE7D4E9012115F8010B90
:101590009047761EF8D22046FFF748F8BDE8F08164
:1015A0004E414E006E616E00494E4600696E660007
:1015B0002DE9F047814616468AB0354878440DC873
:1015C0008DE80D0032487844801C03AC0DC884E8D7
:1015D0000D0041F69B300844372190FBF1F290FB5F
:1015E000F1F5A5F1800501FB12041B3C02D5644214
:1015F000012000E00020DFF898A080460027FA4490
:10160000AAF1BE0A0EE0E0070AD03246684607EBB0
:10161000470101230AEB810108F07DF98DE80700FD
:1016200064107F1C002CEED1194F7F44AE3F19E0AF
:10163000E80715D007EB04100DF1180A90E80E002A
:101640008AE80E00C068F04201D19819089032462D
:10165000012306A903A808F05EF903AB83E807009D
:101660006D10641C002DE3D14FF001033246694632
:10167000B8F1000F03A802D008F038F901E008F033
:101680004AF9C9E90001C9F808200AB0BDE8F087A5
:101690006487000010B50446AFF300802046BDE823
:1016A0001040FEF72EBE000001491820ABBEFEE739
:1016B00026000200704700000146806B036C026C3C
:1016C00013F0500F08D0D20648BF00F049BD806B20
:1016D000C26C0846104700BF42F400710164016803
:1016E0008A6812F0405F01D000F016BD027E002A29
:1016F000FAD1CA6A12F4700F02D08A685205F3D484
:101700004A6822F020024A60016C21F48071016471
:10171000016CC90448BF00F0FFBC016C41F001013D
:10172000016400F0F9BC0000806B40210164416C51
:1017300041F00401416400F013BD0000806B00F033
:10174000FDBC0000006842F20003C4F201039842AD
:1017500018BF7047F0B581B040F2A01642F670474E
:10176000C2F20006C2F20007B86B351D31807280EC
:1017700002FB01F403F14C0106F116032A46009422
:1017800000F050FFB86B0068016841F0080101608B
:10179000016841F0100101603088718801FB00F29E
:1017A0003846294601B0BDE8F04000F089BE00008F
:1017B00042F67040C2F2000000F0D4BCFEE7000028
:1017C000002070470020704710B542F69414C2F212
:1017D000000441F20401C2F200012046002204F09C
:1017E00071FE40F60401C2F20001204604F05CFEE6
:1017F000002010BD10B50B688646FF2B33D840F291
:101800000070C2F2000003806BB340F2006C002451
:10181000C2F2000C002300BF1EF804000CF8040004
:1018200043F001000A6884B2A2421CD91EF80400E9
:101830000CF8040043F002000A6884B2A24212D9F4
:101840001EF804000CF8040043F003000A6884B298
:10185000A24208D91EF8040004330CF804000868FA
:101860009CB2A042D8D842F69414C2F2000420469A
:10187000714604F019FE204604F0F0FD002010BD72
:1018800000207047F0B581B00C4642F69411C2F2C8
:101890000001D1F8BC72054601F0E4F9D7F8141242
:1018A00061B1064601F0DEF9801B0A282AD8012022
:1018B00001F0E8F8D7F814020028F3D142F69416A4
:1018C000C2F2000630462946224604F0FBFD3046AF
:1018D00004F080FE044601F0C5F9D7F8141269B18E
:1018E000054600BF01F0BEF9401B0A280AD80120B6
:1018F00001F0C8F8D7F814020028F3D1204601B04F
:10190000F0BD00BF0124204601B0F0BD2DE9F04F2D
:101910008BB042F6040CC2F2000CBCF900E0864524
:1019200062D0BCF9143083425ED0BCF928408442B6
:101930005AD0BCF93C50854256D0BCF95060864222
:1019400052D0BCF9649081454ED0BCF97880804576
:101950004AD0BCF98C70874246D0BCF9A0A0824521
:1019600042D0BCF9B4B083453ED0CDE909BABCF948
:10197000C8A08245D346CDF820A035D0BCF9DCA064
:10198000824531D0BCF9F0B083452DD0CDE905BA00
:10199000BCF904A107978245D346CDF810A023D007
:1019A000BCF918A182455746CDF80CA01CD0BCF953
:1019B0002CA182455746CDF808A015D0BCF940A10E
:1019C0008245D346CDF804A00ED0BCF954A182457F
:1019D0000AD0BCF968B1834506D0BCF97CC1844506
:1019E0006746CDF800C003D102200BB0BDE8F08FF0
:1019F0001FFA8EFC42F6040EC2F2000EBCF1000F7C
:101A00004FF0000C4CD09BB2002B4DD0A3B2002B5A
:101A10004ED0ABB2002B4FD0B3B2002B50D01FFA38
:101A200089F3002B50D01FFA88F3002B50D0079B6E
:101A30009BB2002B50D00A9B9BB2002B50D0099B2D
:101A40009BB2002B50D0089B9BB2002B50D0069B22
:101A50009BB2002B50D0059B9BB2002B50D0049B17
:101A60009BB2002B50D0039B9BB2002B50D0029B0B
:101A70009BB2002B50D0019B9BB2002B50D01FFA81
:101A80008AF3002B50D01FFA8BF3002B50D0009B11
:101A90009BB2002B50D001200BB0BDE8F08F00BFEF
:101AA000002473464BE000BF0EF11403012446E00E
:101AB0000EF12803022442E00EF13C0303243EE031
:101AC0000EF1500304243AE00EF16403052436E0DD
:101AD0000EF17803062432E00EF18C0307242EE089
:101AE0000EF1A00308242AE00EF1B403092426E035
:101AF0000EF1C8030A2422E00EF1DC030B241EE0E1
:101B00000EF1F0030C241AE00EF582730D2416E09A
:101B10000EF58C730E2412E00EF596730F240EE072
:101B20000EF5A07310240AE00EF5AA73112406E046
:101B30000EF5B473122402E00EF5BE731324188060
:101B400004EB84000EEB8000C0E90121C0F810C056
:101B500040F2C810012AC2F200000FDB0168F1B1A7
:101B60000A690846D2B111691046B9B10A69084636
:101B7000A2B1116910460029F2D10FE050F8081FF8
:101B800069B10A6908464AB11169104631B10A695A
:101B900008461AB1116910460029F2D110300360CD
:101BA00000200BB0BDE8F08F0129C0F2078142F69A
:101BB0000402C2F200029368834200F0D380D3692A
:101BC000834200F0D180136B834200F0CF80536CCE
:101BD000834200F0CD80936D834200F0CB80D36EC2
:101BE000834200F0C980D2F88030834200F0C68082
:101BF000D2F89430834200F0C380D2F8A8308342F8
:101C000000F0C080D2F8BC30834200F0BD80D2F832
:101C1000D030834200F0BA80D2F8E430834200F042
:101C2000B780D2F8F830834200F0B480D2F80C319B
:101C3000834200F0B180D2F82031834200F0AE80C0
:101C4000D2F83431834200F0AB80D2F8483183427D
:101C500000F0A880D2F85C31834200F0A580D2F871
:101C60007031834200F0A280D2F88431834200F0C8
:101C70009F80B0B513884FF0000C002B00F0A080BF
:101C8000154635F8143F002B00F09E80154635F8B8
:101C9000283F002B00F09C80154635F83C3F002B78
:101CA00000F09A80154635F8503F002B00F09880E0
:101CB000154635F8643F002B00F09680154635F840
:101CC000783F002B00F09480154635F88C3F002BB0
:101CD00000F09280154635F8A03F002B00F0908070
:101CE000154635F8B43F002B00F08E80154635F8C8
:101CF000C83F002B00F08C80154635F8DC3F002BE8
:101D000000F08A80154635F8F03F002B00F08880FF
:101D1000B2F80431002B00F08780B2F81831002BA4
:101D200000F08880B2F82C31002B00F08980B2F8E6
:101D30004031002B00F08A80B2F85431002B00F0C3
:101D40008B80B2F86831002B00F08C80B2F87C31C7
:101D5000002B1CBF0120B0BD02F5BE754FF0130E65
:101D600084E000BF002024E0012022E0022020E0E7
:101D700003201EE004201CE005201AE0062018E0E5
:101D8000072016E0082014E0092012E00A2010E0E5
:101D90000B200EE00C200CE00D200AE00E2008E0E5
:101DA0000F2006E0102004E0112002E0122000E0E5
:101DB000132000EB800002EB8000416000207047A0
:101DC0004FF0000E154651E04FF0010E4EE000BFFF
:101DD0004FF0020E4AE000BF4FF0030E46E000BF96
:101DE0004FF0040E42E000BF4FF0050E3EE000BF92
:101DF0004FF0060E3AE000BF4FF0070E36E000BF8E
:101E00004FF0080E32E000BF4FF0090E2EE000BF89
:101E10004FF00A0E2AE000BF4FF00B0E26E000BF85
:101E20004FF00C0E22E000BF02F582754FF00D0E50
:101E30001CE000BF02F58C754FF00E0E16E000BFDF
:101E400002F596754FF00F0E10E000BF02F5A07579
:101E50004FF0100E0AE000BF02F5AA754FF0110E08
:101E600004E000BF02F5B4754FF0120E4FF6FF7399
:101E70002B800EEB8E0302EB830440F2C813C2F2F8
:101E800000031A68C4E90110C4F810C072B11169E6
:101E9000104649B10A69084632B11169104619B1B4
:101EA0000A690846002AF2D100F1100300201D60E3
:101EB000B0BD000042F6B840C2F2000000F0FEBB28
:101EC0007047000072B600BFFEE70000B0B54FF6E5
:101ED0000044CFF6FF744FF0000EA44683F800E0F4
:101EE00003E000BF1CF1010C1CD200EB0C0595F8BF
:101EF0000054BDB11CF5806F18BF9542F2D10EF1B0
:101F0000010E8E45EED1BCEB040118BF012108443F
:101F100084449CF80004002818BF904204D100209B
:101F20001870B0BD0120B0BD002158540CEB010069
:101F300090F8014403EB010E002C18BF94421DD011
:101F40008EF8014090F80244002C18BF94421BD038
:101F50008EF8024090F80344002C18BF944219D028
:101F60008EF8034090F804040431002818BF904212
:101F7000DBD10B4400201870B0BD00BF0EF101038F
:101F800000201870B0BD00BF0EF1020300201870D1
:101F9000B0BD00BF0EF1030300201870B0BD0000FB
:101FA000704700007047000070B581B000220092B9
:101FB00090F83C20012A03D10221084601B070BDEF
:101FC000D1F800E00122BEF10A0F1FFA8EFC80F862
:101FD0003C2009D34FEA4C02036812FA8EF2A2F1B8
:101FE0001E0403F10C0204E003680EEB4E0403F13F
:101FF000100207251668A54026EA050515608D68BC
:10200000166805FA04F4344314604968062907D8B1
:1020100001EB81014A1F194651F8345F0FE000BF00
:102020000C2901EB810105D8A1F12302194651F8D1
:10203000305F04E0A1F14102194651F82C5F1F24E2
:10204000944025EA04040C600CFA02F20C6842F297
:10205000043CC4F2010C2243ACF54174A3420A6073
:1020600006D0002180F83C10084601B070BD00BFCA
:102070001221BEF1110FC1F2000118BF8E453BD1F4
:10208000DCF800208E4522F48002CCF80020DCF839
:10209000002042F40002CCF80020E2D140F22401FA
:1020A000C2F2000109684DF68362C4F21B32A1FB43
:1020B0000212910C01EB8101490000910099002965
:1020C000CFD000BF00990139009100990029C8D0F4
:1020D00000990139009100990029C2D00099013975
:1020E000009100990029BCD0009901390091009914
:1020F0000029E7D1B5E700BFBEF1120FB1D1DCF87E
:10210000001021F40001CCF80010DCF8001041F4BC
:102110008001CCF80010A4E7006842F20001C4F28C
:102120000101884218BF704740F2D810C2F2000087
:10213000018841F00101018070470000006842F20F
:102140000001C4F20101884218BF704740F2DA1062
:10215000C2F20000018841F00101018070470000D7
:102160007047000070B50446006806684568B1070E
:1021700017D515F0200114D0216CC90603D4216CA9
:1021800041F400712164816811F0405F02D1217E29
:10219000002969D02046FFF7BFFF20686FF01201C9
:1021A0000160710714D515F0800111D0216CC906AA
:1021B00003D4216C41F400512164816811F4401F63
:1021C00022D02046FFF7EEFE20686FF00C01016080
:1021D000F10706D015F040011CBF01685FEAC1712C
:1021E00034D1B1060FD515F0806108BF70BD616CA8
:1021F0006FF0200541F00201616405602046FFF7A1
:10220000AFFF2068056070BD816B11F4401F02D0E4
:1022100081684905D5D441684905D2D4816811F057
:10222000405FCED1217E0029CBD1416821F08001D1
:102230004160206C20F480502064206CC005C0D424
:10224000206C40F001002064BBE700BF206C40F42C
:1022500080302064204600F0D1F820686FF0010142
:102260000160B106BFD4CEE7C16A11F4700F03D08C
:10227000816849053FF58EAF416821F0200141603A
:10228000206C20F480702064206CC0043FF582AF85
:10229000206C40F0010020647CE70000002804BFAF
:1022A0000120704710B50446006C00283ED0206C19
:1022B000C00645D4206C41F202118843023042F23C
:1022C00004312064C4F20101086820F44030086041
:1022D0000A6894E809101A43D4F810E00A604168CB
:1022E000012321F4807141604168C0F6007341EA26
:1022F0000E214160416821F040714160416841EA2E
:102300000C014160816821F400618160E1688268AC
:1023100011438160A16A8268994222F070628260F2
:10232000826813D122F0405119E000BF204600F02E
:1023300067F80020606484F83C00206CC006B9D5C2
:102340000120002184F83C1010BD00BF11438160C2
:10235000816821F040518160E16A826811438160A7
:10236000816821F0020181608168227E94F820302A
:1023700041EA42018160416883B141F400614160FA
:1023800041684EF2000221F460414160616ACFF67B
:10239000FF72436802EB4131194301E021F400610F
:1023A0004160C16A40F2000C21F47001C162E2692F
:1023B0006169CFF6F07CC36A0CEB02521A43C26229
:1023C000826822F40072826094F83020836843EAC5
:1023D00042228260826822F480628260826842EADD
:1023E0008121816000206064216C012262F301017F
:1023F0002164002184F83C1010BD000070470000EB
:1024000070B586B0044642F200002168C4F20100B3
:10241000002681420596049602D006B070BD00BF2A
:1024200043F630010096C4F202014A6900F56040AB
:1024300042F480724A614A6902F480720092009A02
:1024400000960A6842F001020A60096801F0010181
:10245000009100990E2101910321CDE9021601A9F5
:1024600000F024FB42F6B84546F21040C2F20005E7
:10247000C4F202004FF48061C5E9000605F11000C6
:102480004FF400624FF400534FF4807C80E80E104C
:102490002846C5E90266C5E9086600F0EFF900289C
:1024A00018BFFFF70FFD122002210022A563AC63C5
:1024B00000F064FC122000F04FFC06B070BD00007C
:1024C000B0B582B004460020019094F83C00012889
:1024D00002D1022002B0B0BD94460A460120216814
:1024E00084F83C008868C00729D188684DF6836568
:1024F00040F00100886040F22400C2F20000006851
:10250000C4F21B35A0FB0505A80C00EB40000190B0
:102510000198A0B1019801380190019878B1019813
:1025200001380190019850B101980138019001984B
:1025300028B101980138019001980028EAD18868F3
:10254000C00503D5886820F4807088608D68206C91
:10255000ED0709D140F010002064606C40F00100EC
:102560006064002002B0B0BD40F20175A84300F5E0
:10257000807020644868400504D5206C012565F30F
:102580000D302064256C0020ED044FF0000544BFA1
:10259000656C25F00605656484F83C00A06B41F28B
:1025A000B96541F23D73C0F60005C0F60003C0E90D
:1025B0000F5341F22973C0F60003C3646FF0220386
:1025C0000B604B6842F2080543F080634B608B68F8
:1025D000C4F2010543F480738B604C31634600F014
:1025E000FFF9D5F8FC122068C9060FD0A5F1080143
:1025F0008842B6D1286810F0405FB2D1286840F018
:1026000080402860002002B0B0BD00BF816811F09A
:10261000405FA6D1816841F080418160002002B016
:10262000B0BD0000B0B5D0F808E0BEF1800F05D114
:102630004FF4807141650120B0BD00BF90F834C0F7
:10264000BCF1010F04BF0220B0BD4FF0010C80F8B7
:1026500034C090F835C0BCF1010F4FF0020C18D116
:1026600080F835C00068049DD0F800C0BEF1400F6E
:102670004CF48024046003610B46456004BF13469C
:102680000A468360C26001684FF0000C41F001010E
:1026900001606046B0BD000090F83510022909D1F4
:1026A000052180F835100068016821F00101016002
:1026B000002070478021416501207047F0B581B04E
:1026C00004460020009040F22400C2F2000002689C
:1026D000D4E9166048F2B51337680821C1F64E33C5
:1026E00081403942A2FB03250CD0226813685B07A6
:1026F00008D5136823F004031360B160616D41F0E5
:102700000101616501218140394208D02268526986
:10271000120604D5B160616D41F0020161650421CA
:102720008140394208D022681268920704D5B1600E
:10273000616D41F00401616510218140394217D07B
:1027400020680268120713D5B1600268016852035D
:1027500008D4C90508D4016821F008010160216C82
:1027600021B905E008033FD4216C09B12046884710
:10277000E16D202000FA01F23A4241D0206803685E
:10278000DB063DD5B26094F835300268052B1BD1CD
:1027900022F016020260426922F080024261226C3D
:1027A0000AB9A26C1AB1026822F0080202603F2046
:1027B0008840B060012084F83500216D0020002998
:1027C00084F8340052D157E00168520310D4C9058F
:1027D00012D4016821F010010160012084F8350055
:1027E000002084F8340007E0A16C0029BED1BFE7C7
:1027F000080301D4616C00E0E16B09B12046884711
:10280000606DC8B3606DC0072ED0052084F8350018
:102810002068A90A026822F001020260009A0132CF
:102820008A4200921AD80268D20717D0009A013261
:102830008A42009212D80268D2070FD0009A013261
:102840008A4200920AD80268D20707D0009A013261
:102850008A42009202D80268D207DFD1012084F8B0
:102860003500002084F83400E16C29B1204601B025
:10287000BDE8F040084700BF01B0F0BD2DE9F041D0
:10288000044600F0EFF9ECB10546022084F835006B
:102890000020216884F83400086820F001000860F6
:1028A00021680868C00711D000F0DCF9401B05283A
:1028B000F6D9032520230320636584F83550BDE84D
:1028C000F08100BF0120BDE8F08100BF086848F238
:1028D0003F02CFF21002D4E9013500EA020C04F104
:1028E0000C0898E8C10143EA0C032B431843D4E9D0
:1028F000072E304338431043626A40EA0E00042A30
:1029000040EA08031CD1206BD4E90A2E40EA0E00ED
:10291000184308604869BEF1000F20F0030040EA48
:10292000020040F0040C11D0B8F5005F36D0B8F1C9
:10293000000F45D1022A46D0012A3BD032B942E0ED
:102940000B60486920F0070040EA020C01F0F80033
:102950004AF6AB221038CAF6AA22A0FB02231A09B3
:1029600049F64C53C1F814C0C0F600039A5C40F21B
:10297000FF335F284FF03F0021EA030100FA02F025
:1029800088BF0431C4E916128860002301250020A5
:10299000636584F83550BDE8F08100BF032AD5D8BF
:1029A000012540230120DFE802F0030E030500BFEC
:1029B00082E700BFAEF1C070B0FA80F0400904E0D9
:1029C000032A04D3C2D1CEF300600028BED0012573
:1029D00040230120636584F83550BDE8F081000094
:1029E00090F834C0BCF1010F04BF0220704770B5ED
:1029F0004FF0010C80F834C0D0F858E090F835C0A2
:102A0000BCF1010F38D14FF0020C80F835C04FF007
:102A1000000CC0F854C0D0F800C08468056CC06DCC
:102A2000DCF80060402C26F48026CCF80060CCF85E
:102A300004300B4604BF13460A463F2101FA00F05A
:102A4000CCF80830CCF80C20CEF80800DCF80000F8
:102A500040F01600CCF800002DB1DCF8000040F08A
:102A60000800CCF80000DCF8000040F00100CCF8D1
:102A70000000002070BD00BF002180F8341002204B
:102A800070BD0000B0B5044600F0ECF8054640F219
:102A90000000C2F200000078611C18BF044400BFAF
:102AA00000F0E0F8401BA042FAD3B0BD2DE9F04F92
:102AB00082B000F13E4707F1FF77860546EA972787
:102AC00041F20006C4F20206072243F6004EB0426D
:102AD00008BF0422C4F2010E042F38BF3A46002674
:102AE00000274FF00008009209E000BF08F101083C
:102AF0000237B8F1100F06F1040600F0A3800D684C
:102B0000012202FA08F415EA0409EFD0D1F804B062
:102B100003220BF0030CACF10105BA40012D6FEA62
:102B2000020A0FD88268CD6802EA0A02BD402A4331
:102B300082604268A243CBF3001404FA08F42243F3
:102B4000426005E0BCF1030F02D14FF0030C1EE020
:102B5000C2688C6802EA0A02BC402243BCF1020F40
:102B6000C26014D16FF0030202EA58020244D2F8A4
:102B700020C006F01C040F230D69A3402CEA0303B8
:102B8000A5402B431362D1F804B00BF0030C02688C
:102B90000CFA07F302EA0A021A431BF4403F0260F0
:102BA000A4D0002243F644030192C4F202031A683F
:102BB0004FF6084C42F480421A601A68CFF6FF7C48
:102BC00002F480420192019A28F00302724452F802
:102BD0000C3006F00C050F24AC40A343009C04FA13
:102BE00005F52B4342F80C30DEF808204B6842EA2A
:102BF000090543F60C4CDC0258BF22EA0905CEF861
:102C00000850C4F2010CDCF800209C0242EA0905DD
:102C100058BF22EA0905CCF80050DEF804209C03D6
:102C200042EA090558BF22EA0905CEF80450DEF849
:102C30000020DB0342EA090558BF22EA0905CEF865
:102C4000005053E702B0BDE8F08F00000069084073
:102C500018BF012070470000002A08BF09048161E5
:102C60007047000043F2BC20C2F2000000687047C9
:102C700040F2000043F2BC21C2F20000C2F20001A7
:102C800000780A68104408607047000080B543F679
:102C90000040C4F20200016841F400710160016863
:102CA00041F480610160016841F48071016003209A
:102CB00000F090F8002000F005F800F027F8002060
:102CC00080BD000070B540F20006C2F2000640F27E
:102CD00024013278C2F200014FF47A730968B3FB21
:102CE000F2F20446B1FBF2F1084602F07DFA0F2C35
:102CF0004FF0010508D838B94FF0FF3021460022C7
:102D0000002500F03BF87460284670BD80B582B0A5
:102D1000002043F640010190C4F202014A6842F4E7
:102D200080424A604A6802F480420192019A00900F
:102D30000868002240F0805008600868002100F018
:102D4000805000900098512000F018F8512002B0F7
:102D5000BDE88040AFF30080002848BF704700F016
:102D60001F01012202FA01F11C2202EAD0004EF2F8
:102D70000012CEF2000281507047000010B54EF6EE
:102D80000C5CCEF2000CDCF80030C3F3022E8EF0A7
:102D90000704042C28BF0424BEF103034FF0FF3EB8
:102DA0000EFA04F438BF0023A14399400EFA03F34E
:102DB0009A43114300F00F0200F160430901043A05
:102DC00003F564436244002848BF02F10C03197004
:102DD00010BD00004EF60C51CEF200010A684FF60D
:102DE000FF031A4060F30A2242F0806040F0FD7059
:102DF0000860704770470000026800205162704709
:102E00002DE9F041D0F80080D8F8243081B1D8F80D
:102E10002870B1F1010E03EB174355D05FFA8EF124
:102E200004290EF0030C0BD2002700212DE000BF77
:102E300043EA02410020C8F82810BDE8F08100BF35
:102E40000EF0FC0408F1F405002108F5827600BFBD
:102E500055F8107F41F0020003EB174341F00107E2
:102E6000FFB256F82770C0B256F8200003EB1743A4
:102E700003EB104041F00303DBB256F8233004317A
:102E8000CFB2A74200EB1343E2D1BCF1000F1BD03D
:102E900008EB8700D0F80401BCF1010F03EB1043ED
:102EA00012D0481CC0B208EB8000D0F80401BCF17D
:102EB000020F03EB104307D0881CC0B208EB800060
:102EC000D0F8040103EB104343EA024008EB8E0103
:102ED000C1F804010020BDE8F0810000D0F8E00452
:102EE00003F092BE01EBC102D0F8E03400EB8200A7
:102EF000026A184603F0F0BD01EBC102D0F8E034DD
:102F000000EB8200D0F86022184603F041BE0000BA
:102F1000D0F8E00403F07ABE10B5044648B2B0F130
:102F2000FF3F01F00F0000EBC00104EB810205DD63
:102F300002F51571002382F8553203E0012302F1F6
:102F40001401537594F894240870012A04BF0220D8
:102F500010BD2068012284F8942404F00FFC0020A6
:102F600084F8940410BD0000B0B50279044601F065
:102F70000F00904284BF0120B0BD49B2B1F1FF3FC4
:102F80000ADD00EBC00104EB810202F5157100239C
:102F900082F8553208E000BF00EBC00104EB81026B
:102FA000012302F11401537594F894240025012A99
:102FB0008D70087004BF0220B0BD2068012284F823
:102FC000942404F0C5FE284684F89454B0BD000053
:102FD00001F00F0101EBC10100EB8100D0F86802A4
:102FE0007047000070B5064648B2B0F1FF3F01F0EF
:102FF0000F0000EBC00107DD06EB810404F515713D
:10300000002584F8555206E006EB810C01240CF1F2
:1030100014018CF815404D780870002D8A600B71F2
:1030200018BF4883022B04BF0020487196F894040F
:10303000012804BF022070BD3068012286F8942464
:1030400004F040FA002086F8940470BD10B501F039
:103050000F0404EBC40100EB810E4FF0000CCEF81E
:1030600068C28EF855C290F806C0CEF86022CEF83D
:103070006432BCF1010F8EF8544208BFCEF87022C2
:1030800000680EF51571624604F0ACFE002010BD1C
:10309000B0B50446007901F00F05854284BF0120D8
:1030A000B0BD48B2B0F1FF3F0ADD01EBC10004EB57
:1030B000800000F51571002280F8552208E000BF5D
:1030C00005EBC50004EB8000012200F114014275FC
:1030D00094F89404012201288A700D7004BF022024
:1030E000B0BD206884F8942404F05CFE25B1002073
:1030F00084F89404B0BD00BF2068A17904F29C421A
:1031000004F0F8FD002084F89404B0BD80B501F00F
:103110000F0C0CEBCC0100EB810E714601F814CFC3
:103120004FF0000CC1F814C04FF0010C81F801C041
:1031300090F806C0CA60BCF1010F0B6108BFCEF861
:1031400030200068624604F04DFE002080BD000083
:103150002DE9F04F89B0D0F800A00646504605F0A2
:1031600043F818B109B0BDE8F08F00BF306805F032
:1031700069F80028F6D0DAF80808C0F30D213068A5
:10318000C6F8D41405F05EF801463068890703D507
:10319000416901F0020141610AF50061049105F005
:1031A00051F801463068C90608963BD5816921F07F
:1031B00010018161DAF82040C4F34340062804F08E
:1031C0000F0519D0022828D147F6F07014EA00083C
:1031D00023D005EBC50006EB8007D7F860124FEA55
:1031E00018145046224605F031F8D7F8600200EB7B
:1031F0001810C7F8600207E006F29C41504608220A
:1032000005F024F8C4F30A1405EBC50006EB8000B2
:10321000D0F868122144C0F868123068816941F022
:103220001001816105F00EF8000340F1F580089867
:10323000006804F0E5FF002800F0EE8006460898DC
:103240004FF4306400F29C4100F51D784FF0000B04
:10325000079119E00AEB040002218160B80642BF21
:103260000AEB040020218160B80442BF0AEB04008D
:103270004FF4005181600BF1010B760804F120043A
:1032800008F1240800F0C880F007F4D008985FFA2D
:103290008BF90068494604F0CDFF0746C00763D0AC
:1032A0000AEB040001218160089D28682118036C45
:1032B0008A68AD79012D29D1150735D4950600F11D
:1032C000A38012F0280F4FD143F20B05C4F65475BA
:1032D000AB4202D312F400422FD1D8F80020096982
:1032E000BBF1000F6FF3DF41A2EB010148F80C1CAA
:1032F00035D1089BD3F86422002A00F08B80D3F8E4
:1033000060020844C3F8600229E000BF43F20B05E5
:10331000C4F65475FF35AB4216D110040DD4900697
:1033200044BF202088601AE043F20B00C4F65470BA
:10333000834219D312F4004016D04FF40040886045
:10334000380713D440E000BFBBF1000F07D1089944
:10335000D1F8641219B90021079A04F0CBFC08983F
:103360004946FFF7C9FD00BF38072DD50AEB040019
:1033700008218160089843F20B020068C4F6547279
:10338000056C2044816895420AD311F4004107D0AE
:103390004FF400418160089800F022FD09E000BF71
:1033A000089800F01DFD43F20B00C4F654708542EE
:1033B0000AD308988079012806D10898079A0068EE
:1033C000012104F097FC00BFF80642BF0AEB04009D
:1033D00010218160B8077FF541AFDAF814000006CC
:1033E00004D50499486840F48060486018F81D0CC2
:1033F00001287FF42FAF002008F81D0C08984946DB
:1034000000F044FB26E700BF202088603807ADD4D9
:10341000DAE700BF01219FE7DDF820B0CDF80CA06E
:10342000DBF8000004F00EFF400340F1D580DBF82C
:10343000000004F0DDFE002800F0CE8082460398F4
:10344000012700F510660BF29C40002501900296C2
:1034500006E000BF5FEA5A0A05F1010500F0BC80F2
:103460005FEACA70F6D0DBF80000E9B2079104F019
:10347000CFFE0446C00725D0049A05F00F00516B1B
:1034800007FA00F021EA0000506306EB4510876060
:103490009BF80600012811D105EBC5000BEB80005D
:1034A000D0E907121144016245B9DBF8240028B9BC
:1034B000DBF80000019A012104F01CFC0799584632
:1034C000FFF710FD200742BF06EB45100821816081
:1034D000E00642BF06EB451010218160600642BF46
:1034E00006EB451040218160A00715D503982946B9
:1034F00004F00CFE05EBC5000BEB800010F8171F65
:10350000012905D1002101700799584600F0BAFA47
:1035100006EB45100221816020069BD505EBC50016
:103520000BEB8002914659F8241FC84658F8040F47
:1035300081428FD3DBF8006093465BF81C7F0B1A47
:10354000BB4238BF1F46069606EB4513D3F818C991
:1035500007F1030E1FFA8CF7B7EB9E0F28D303F584
:10356000106102F120070591D9F8001081421FD99E
:10357000DBF80040089A081AA0423968967938BFEB
:103580000446DDE90602A3B2009605F007F93868A3
:10359000D8F800102044386008190599C8F80000D0
:1035A0008969E21C89B2B1EB920FDDD2D9F8001023
:1035B000DDF820B0029E012781423FF64BAF069A0C
:1035C00005F00F00D2F8341807FA00F021EA0000E5
:1035D000C2F834083EE700BFDBF8000004F032FE1A
:1035E000002825D4DBF80000DDE9038904F02AFE79
:1035F000000540D4DBF8000004F024FEC0044BD5E5
:10360000D9F80400102120F00100C9F80400DBF80B
:10361000000004F07BFD9BF80400010600F0F08040
:10362000C1B2042900F003003AD200219FE000BF9C
:10363000DDF81090D9F8040020F00100C9F804006A
:103640009BF8CC04012807D100208BF8CC04584605
:103650000021FFF7CFFB02E0584600F0A5FBDBF8A6
:103660000000DDF80C80416901F00041416104F087
:10367000E9FD0005BED5D9F80800C00702D05846BC
:1036800000F0D6FBDBF80000416901F40061416104
:1036900004F0D8FDC004B3D4DBF80000E3E000BFC1
:1036A0006FF0600202EA411200234FF67F370021DB
:1036B00008EB0306C6F80879D6F80059803325F4DC
:1036C0000015C6F80059C6F8087BD6F8005B9A4288
:1036D00025F40015C6F8005BD6F8005B01F1040183
:1036E00045F00065C6F8005BC6F82879D6F8205981
:1036F00025F40015C6F82059C6F8287BD6F8205BBB
:1037000025F40015C6F8205BD6F8205B45F000656F
:10371000C6F8205BC6F84879D6F8405925F400155C
:10372000C6F84059C6F8487BD6F8405B25F400152A
:10373000C6F8405BD6F8405B45F00065C6F8405BD4
:10374000C6F86879D6F8605925F40015C6F86059AE
:10375000C6F8687BD6F8605B25F40015C6F8605B98
:10376000D6F8605B45F00065C6F8605BA0D1002824
:1037700046D008F5106202EB41134FF67F374E0139
:103780009F60955908F5306325F40015955103EBBA
:103790004115AF609D59012825F400159D519D5993
:1037A00045F000659D512BD04E1C02EB461475016F
:1037B000A760545903EB461624F400145451B76023
:1037C0005F59022827F400175F515F5947F00067DF
:1037D0005F5115D0881C02EB40174FF67F36410130
:1037E000BE60575803EB401027F40017575086600F
:1037F000585820F400105850585840F00060585065
:10380000D9F81C0040F00110C9F81C009BF80F000B
:1038100040B1D9F8840040F00B00C9F8840009F1E8
:10382000440008E0D9F8140042F22B010843C9F81B
:10383000140009F1100001680BF29C4241F00B01E9
:103840000160D9F8000020F4FE60C9F80000DBF840
:1038500000009BF8061004F04DFADBF80000416907
:1038600001F48051416104F0EDFC0146DBF80000F9
:1038700089041AD503F068FEDBF8000004F0A6FC0A
:10388000DBF800408BF8070000F04CFC9BF80720A9
:103890000146204604F0F6FE584600F073FADBF8C5
:1038A0000000416901F40051416104F0CBFC0007C4
:1038B00006D4DBF8000004F0C5FC00060DD437E0A8
:1038C000584600F075FADBF80000416901F0080184
:1038D000416104F0B7FC00062AD5D8F8180020F0A2
:1038E0008000C8F818009BF80400022820D30124A7
:1038F00040F27B2505E000BF0134844205F1240538
:1039000016D21BF805100129F6D104F00F0000EBC8
:10391000C0000BEB80022006DBF8000002F114016E
:1039200058BF02F5157104F061FB9BF80400E3E752
:10393000DBF8000004F086FCC00251D4DBF8000084
:1039400004F080FC800240F180809BF80410022982
:103950002DD308F5326001390BF51F72012303E006
:10396000013900F1200022D01746066812F8245BC6
:10397000012DF5D1B6F1FF3FF2DCDBF8D45406F4AB
:10398000803605F00105AE42EAD107F8013CD8F8CF
:10399000187047F08007C8F81870D8F814703F0600
:1039A000DED4D9F8040040F40070C9F80400DBF854
:1039B0000000416901F40011416104F043FC400042
:1039C00049D55846FFF78AFADBF80000416901F053
:1039D0008041416104F036FC40077FF5C3AB41E014
:1039E0009BF80400022825D308F512640BF13C056E
:1039F0000126012705E000BF0137874204F12004BA
:103A000018D22946226815F8243B012BF4D1B2F1D3
:103A1000FF3FF1DC07F00F0000EBC00001F8016C84
:103A20000BEB8001DBF80000143104F0DFFA9BF8A7
:103A30000400E1E7DBF80000416901F48011416115
:103A400004F000FC80023FF580AFDBF8000004F0DA
:103A5000F9FB4000B5D4DBF8000004F0F3FB4007AD
:103A60007FF580ABDBF800004468610704D5584659
:103A7000FFF74EFADBF8000041682143416009B0CE
:103A8000BDE8F08FD0F8E00403F020B9D0F8E004EE
:103A900003F032B970B582B0002800F022810446EC
:103AA000056890F8950428B9002084F8940420460D
:103AB00000F028F90320B5F1A04F84F8950404BF65
:103AC0000020A071206804F00DF994E80F00267C16
:103AD000009603F049FD002840F000812068002195
:103AE00004F00AFC002840F0F98094F804E0BEF1EC
:103AF000000F00F0EC800EF0030CBEF1040F4FF04D
:103B000000023FD30EF0FC03A4F190050320012135
:103B1000C61E85F8A460A5F8BE60861E85F8C8603C
:103B2000A5F8E260461E85F8EC60A5F8066185F808
:103B30001001A5F82A01061D013085F8A51085F8A9
:103B4000A820C5E92B22C5F8B42085F8C91085F84E
:103B5000CC20C5E93422C5F8D82085F8ED1085F8C9
:103B6000F020C5E93D22C5F8FC2085F8111185F843
:103B70001421C5E94622C5F82021903598423046E7
:103B8000C6D1F21EBCF1000F2CD002EBC20004EB38
:103B9000800301210020BCF1010F59751A75DA85E7
:103BA0001876C3E9070058621CD0531C03EBC30509
:103BB00004EB8505BCF1020F69752B75EB85287642
:103BC000C5E9070068620DD0901C00EBC00104EB52
:103BD000810101220875C88500204A750876C1E96F
:103BE00007004862BEF1000F71D0BEF1040F4FF024
:103BF000000235D30EF0FC0003212346CE1E83F8CD
:103C000054628E1E83F878624E1E83F8C0120D1D1A
:103C1000013183F8552283F85822C3E99722C3F86B
:103C2000642283F8792283F87C22C3E9A022C3F8B6
:103C3000882283F89D2283F89C6283F8A022C3E93E
:103C4000A922C3F8AC2283F8C12283F8C422C3E9B5
:103C5000B222C3F8D022903381422946CED1EA1E47
:103C6000BCF1000F33D002EBC20004EB8001002056
:103C7000BCF1010F81F8550281F8542281F85802F5
:103C8000C1E99700C1F8640221D0511C01EBC103C6
:103C900004EB8303BCF1020F83F8550283F854123E
:103CA00083F85802C3E99700C3F864020FD0901C50
:103CB00000EBC00104EB8101002281F8552281F85C
:103CC000540281F85822C1E99722C1F8642294E88D
:103CD0000F00267C009603F0B5FD38B1022084F871
:103CE00095040125284602B070BD00BF00250120C3
:103CF000657484F89504206803F094FD284602B0AA
:103D000070BD00000068B0F1A04F18BF7047B0B59B
:103D100086B0002543F630040195C4F20204206801
:103D200001A940F001002060206800F0010001902E
:103D300001984FF4C05001900220CDE90205032004
:103D400004900A2005900020C4F20200FEF7AEFEA7
:103D50006068032140F08000606000956069002287
:103D600040F480406061606900F4804000900098F9
:103D70004320FFF703F84320FEF7EEFF06B0BDE84F
:103D8000B040704710B50446C079022818BFFEF74E
:103D900099F8D4F8E004012103F034F8D4F8E004F1
:103DA000BDE8104002F0E4BFD0F8E00403F010B822
:103DB000D0F8E00403F016B810B5044690F8940467
:103DC000012804BF022010BD012084F8940461740E
:103DD000206804F045FC002084F8940410BD000025
:103DE000D0F8E02400F29C41104603F021B8000016
:103DF00010B5044690F89404012804BF022010BDB9
:103E00002068012184F89414C168490606D5617BB5
:103E1000012903D1816B41F48031816304F06EF993
:103E2000206803F0EFFC002084F8940410BD00002B
:103E300010B50446D0F8E00403F050F82068D0F83C
:103E4000001E41F00101C0F8001EE07A002808BF02
:103E500010BD4EF61050CEF20000016841F0060190
:103E6000016010BDF0B581B00446006810F0050F88
:103E70002DD06827C4F2472743F670060020C4F20D
:103E800002063860FEF7EEFE054600BF56F8700CDD
:103E9000000105D5FEF7E6FE401B0228F6D93DE0FD
:103EA000221D07CA40EA811040EA027070610120B9
:103EB0003860FEF7D7FE054656F8700C000105D4B1
:103EC000FEF7D0FE401B0228F6D927E020688107C4
:103ED00058D543F670060020C4F20206009056F84A
:103EE000300C47F2000740F0805046F8300C56F88E
:103EF000300CC4F2000700F0805000900098386841
:103F000040F480703860FEF7ADFE05463868C005A5
:103F100008D4FEF7A7FE401B0228F7D9032001B002
:103F2000F0BD00BF306810F4407013D0216901F477
:103F3000407188420ED0306840F64061C4F247219B
:103F4000012220F440700A6000220A60306030686C
:103F5000C00723D12068216956F8682C4FF6FF4727
:103F600001F4407322F4F812C0F6FF770F40B3F566
:103F7000407F08BF3A4346F8682C32686FF31F3120
:103F800011433160000706D5207D40F64061C4F240
:103F90004721C1F8A003002001B0F0BDFEF762FE8A
:103FA000054641F2883700BF30688007D2D4FEF75B
:103FB00059FE401BB8424FF00300F5D9ECE7000072
:103FC000002804BF012070472DE9F04143F608089E
:103FD000C4F202080446D8F8F8030D4600F00700C2
:103FE000884207D288F8F853D8F8F80300F00700A1
:103FF000A84277D12068810717D5410705D5D8F8A1
:10400000001041F4E051C8F80010010705D5D8F8B8
:10401000001041F46041C8F80010D8F80010A26800
:1040200021F0F0011143C8F80010C00740D1D8F8C2
:10403000F80300F00700A84207D988F8F853D8F829
:10404000F80300F00700A8424CD12068410707D5CB
:10405000D8F80010E26821F4E0511143C8F80010CC
:10406000000708D5D8F80000216920F4604040EA34
:10407000C100C8F8000000F05BF8D8F8001049F65D
:104080003C52C1F30311C0F60002515C40F224021D
:1040900020FA01F140F20400C2F200000068C2F20E
:1040A00000021160FEF70EFE0020BDE8F08100BFA7
:1040B0006068811E022907D258F8081C89015CBF7C
:1040C0000120BDE8F08111E0012807D158F8081C53
:1040D00089035CBF0120BDE8F08107E058F8081CA7
:1040E000890703D40120BDE8F08100BFD8F8001093
:1040F00021F003010843C8F80000FEF7B3FD0646AF
:1041000041F28837D8F80000616800F00C00B0EB8D
:10411000810F8CD0FEF7A6FD801BB842F2D9032098
:10412000BDE8F08140F22400C2F200000068704750
:1041300010B543F60404C4F20204606800F00C00F9
:1041400008280BD0042819BF42F20040C0F2F40046
:1041500047F64000C0F27D1010BD00BF2068216806
:104160002368490247F64001C0F27D1100F03F028A
:10417000C3F388105CBF42F20041C0F2F401A1FB1E
:1041800000010023FCF7ECF821680222C1F3014191
:1041900002EB4101B0FBF1F010BD0000002804BFAC
:1041A000012070472DE9F04182B00446007843F6C3
:1041B0000006C007C4F202060CD0B06800F00C0084
:1041C000042840F081803068800303D560680028AF
:1041D00000F06A81207880071BD5B06810F00C0FC2
:1041E00009D0B06800F00C00082840F087807068A3
:1041F000400200F183803068800703D5E068012821
:1042000040F052813068216920F0F80040EAC10096
:1042100030602078000713D4207840072AD4A5699D
:10422000002D00F03C81B06800F00C00082840F040
:10423000A180012D40F01081012002B0BDE8F08185
:104240006069002840F20000C4F2472000F07E8040
:104250000121C0F8801EFEF705FD0546706F80073E
:10426000DAD4FEF7FFFC401B0228F7D9032002B086
:10427000BDE8F081306C5FEAC0080AD400200190EC
:10428000306C40F080503064306C00F08050019011
:10429000019847F20007C4F200073868C00547D408
:1042A000386840F480703860FEF7DCFC054600BFDB
:1042B0003868C0053CD4FEF7D5FC401B0228F7D96E
:1042C000032002B0BDE8F081B06800F00C000828BF
:1042D00003D1706840023FF576AF6068B0F5803F6B
:1042E00007D0B0F5A02F40F09B80306840F48020CC
:1042F0003060306840F4803030609BE0E068002837
:104300005CD00020C4F2472001210160FEF7AAFC26
:10431000054600BF306880073FF574AFFEF7A2FC8A
:10432000401B0228F6D9032002B0BDE8F08100BF8F
:10433000A068012805D0052854D1306F40F0040052
:104340003067306F40F00100306755E00021C0F861
:10435000801EFEF787FC0546706F80077FF55CAF17
:10436000FEF780FC401B0228F6D9032002B0BDE80E
:10437000F08100BF0027C4F2472700203866FEF70F
:1043800071FC022D05460DD13068800140F190800E
:10439000FEF768FC401B02284FF00300F4D902B07E
:1043A000BDE8F0813068800179D5FEF75BFC401BE9
:1043B00002284FF00300F5D9F1E700BF0020C4F256
:1043C000472000210160FEF74DFC0546306880075C
:1043D0007FF51FAFFEF746FC401B02284FF003009D
:1043E000F4D9DCE7316F002821F001013167316F2A
:1043F00021F0040131677DD0FEF734FC054641F21F
:10440000883700BF306F800700F18680FEF72AFCF6
:10441000401BB842F6D9032002B0BDE8F08100BFCE
:104420003168002821F480313160316821F4802125
:1044300031607BD0FEF716FC054600BF3068800374
:104440003FF5C8AEFEF70EFC401B6428F6D90320EA
:1044500002B0BDE8F08100BF7068E16900F480023D
:104460008A4221D1216A00F03F028A421CD147F6DC
:10447000C071626A0140B1EB821F15D1A16A4FF68B
:10448000FF73C903994300F44032A1F580318A4299
:104490000AD1E16A00F07060B0EB016F04D1002036
:1044A00002B0BDE8F08100BF012002B0BDE8F0819C
:1044B00004F11C052FCD084340EA8210D9034FF6C2
:1044C000FF729143A1F5803140EA056008437060B6
:1044D00001203866FEF7C6FB044600BF3068800145
:1044E000DDD4FEF7BFFB001B02284FF00300F5D917
:1044F00055E700BFFEF7B6FB054641F2883700BF1F
:10450000306F800708D5FEF7ADFB401BB8424FF077
:104510000300F5D943E700BFB8F1000F3FF57FAEC8
:10452000306C20F08050306479E600BFFEF79AFBD3
:10453000054600BF306880037FF54CAEFEF792FB66
:10454000401B64284FF00300F4D928E7006800EB13
:104550008100006D70470000006800EB810002657B
:104560007047000010B581B040F22403C2F200038E
:10457000D3F800C044F6D353C1F26203ACFB033C52
:104580004FEADC2C4FF47A730CFB03FECDF800E00D
:10459000037F4FF0020C012B00F0848080F81DC0D7
:1045A0000468CA23636253236362A3685B054FD424
:1045B000A36823F48063A360E36863F4906323F447
:1045C0008063E360CDF800E0009B013B0093009B1B
:1045D000002B5FD0E3685B071AD4009B013B00937C
:1045E000009B002B56D0E3685B0711D4009B013B76
:1045F0000093009B002B4DD0E3685B0708D4009B21
:10460000013B0093009B002B44D0E3685B07DBD5A4
:10461000A3684FF0000C23F00703A360A3681A43BC
:10462000A260616143F60041C4F201010A6842F4EC
:1046300080020A608A6842F480028A60A16841F4BC
:104640008041A160A16841F48061A160012124E062
:10465000009B013B0093009BE3B1E3685B07A7D598
:10466000009B013B0093009BA3B1E3685B079FD5D0
:10467000009B013B0093009B63B1E3685B0797D508
:10468000009B013B0093009B23B1E3685B07DFD4F1
:104690008EE700BF03214FF0030CFF2262624177D7
:1046A00000210177604601B010BD00007047000096
:1046B00010B5044643F61440C4F201004FF48001E3
:1046C00001602068C168490508D5C16861F490613E
:1046D00021F48061C1602046FFF7E8FF0120607788
:1046E00010BD000010B5006840684FEA1043C0F3E9
:1046F000042E00F03F0CC0F34234CB7081F801E08F
:1047000081F802C00C700AB1002010BDDCB224098F
:1047100004EB840403F00F0303EB4403020ACB70A1
:104720004FEA1E1343EA830302F00F0202EB430237
:104730004A704FEA1C1242EA820200F00F0000EBBE
:1047400042008870002010BD10B50068836A4B607D
:1047500003696FF3DF338B600068C0F30543C0F378
:10476000062E00F07F0CC0F380540B7081F801E03E
:1047700081F802C0CC700AB1002010BD020C1B09E8
:1047800043EA830302F00F0202EB4302040A0A70B9
:104790004FEA1E1202EB820204F00F0303EB420207
:1047A0004A704FEA1C1202EB820200F00F0000EB8D
:1047B00042008870002010BD002804BF012070470F
:1047C000B0B50446407F20B900202077204600F095
:1047D00071F8022060772168C868C0065ED4CA20DC
:1047E000486253204862C868400615D4C86840F043
:1047F0008000C860FEF736FA2168CA6852060BD4FA
:10480000054600BFFEF72EFA401BB0F57A7F49D867
:104810002168C8684006F5D588684FF6BF72CFF6A4
:104820008F7210408860D4E9010CD4E903356269C5
:1048300028438D681043284388600B61086940EA6B
:104840000C400861C86820F08000C8608868800655
:104850001AD443F65F70C0F20100C860FEF702FA96
:10486000054600BF2168C86880060DD4FEF7FAF936
:10487000401BB0F57A7FF5D9042060772068FF21CE
:1048800041620120B0BD00BF086C20F480200864A4
:10489000A0690A6C10430864FF2048620120607719
:1048A0000020B0BD042060772068C168FF2141620C
:1048B0000120B0BD80B586B0006842F60001C4F2A8
:1048C000000188424FF000000590CDE90300CDE9DA
:1048D000010001D006B080BD022000904FF480702E
:1048E00004906846FFF7BEFA002818BFFDF7EAFA01
:1048F00040F63C60C4F247200121016003200321FF
:104900000022FEF73BFA0320FEF726FA06B080BD30
:104910002DE9F04381B00446007F01284FF00200EA
:1049200000F09F800123237760773AB14878CA78F6
:104930008E78000240EA024846E000BF48784FF017
:10494000CD0CC20642BF00F0EF000A304870CA78B2
:104950004FF00109A2F10A07FDB205FB0CF5EB0AC5
:1049600003EB83035FFA82FEA7EB43038E7809EB28
:10497000D525BEF1090F88BF43EA0512A0F10A034D
:10498000DDB205FB0CF5EF0A07EB8707A3EB470346
:1049900009EBD527092888BF43EA0710C0B2D2B275
:1049A000000240EA0248A6F10A02D3B203FB0CF36C
:1049B000DF0AF0B207EB8707A2EB470209EBD3232C
:1049C000092888BF42EA03160F782168CA20486286
:1049D00053204862C868400614D4C86840F080007C
:1049E000C860FEF73FF92168CA6852060AD4054636
:1049F000FEF738F9401BB0F57A7F35D82168C868D2
:104A00004006F5D5F0B240EA08007A0320F0C00075
:104A100010434860C86820F08000C860886880063D
:104A200018D443F65F70C0F20100C860FEF71AF9AF
:104A3000054600BF2168C86880060BD4FEF712F94E
:104A4000401BB0F57A7FF5D90420607721680120FA
:104A500003E000BF012060770020FF224A620021AE
:104A6000217701B0BDE8F083042060772168C86831
:104A70000120F2E72DE9F04F81B00446007F0128C4
:104A80004FF0020000F0C3800D46012121776077CE
:104A90002168886832B140060CD44FF0000885F8D0
:104AA00003800AE0400611D44FF0000885F8038027
:104AB0000FE000BFE8784FEA80586A78287895F8C8
:104AC00002A0120242EA004947E000BFE8784FEA3C
:104AD00080582A784FF0CD0CA2F10A00C6B206FB2E
:104AE0000CF66B78F70A4FF0010B5FFA82FE07EBCA
:104AF00087070BEBD62695F802A0A0EB4700BEF186
:104B0000090F88BF40EA0612A3F10A06F7B207FBB5
:104B10000CF7F80A5FFA82FEDAB200EB8000A6EB2F
:104B200040000BEBD726092A88BF40EA0613AAF1FA
:104B30000A02D8B2D3B203FB0CF30002DF0A40EA48
:104B40000E495FFA8AF007EB8707A2EB47020BEBEF
:104B5000D323092888BF42EA031ACA204862532097
:104B60004862C868400615D4C86840F08000C86034
:104B7000FEF778F82168CA6852060BD4064600BFD3
:104B8000FEF770F8801BB0F57A7F43D82168C868BB
:104B90004006F5D55FFA8AF040EA090047F67F72D1
:104BA00040EA0800C0F27F0210400860886820F4E4
:104BB00080208860D5E903028B6810431843886021
:104BC000C86820F08000C8608868800618D443F662
:104BD0005F70C0F20100C860FEF744F8054600BFF0
:104BE0002168C86880060BD4FEF73CF8401BB0F57E
:104BF0007A7FF5D9042060772168012003E000BFA7
:104C0000012060770020FF224A620021217701B055
:104C1000BDE8F08F042060772168C8680120F2E7C2
:104C200070470000B0B582B00446006841688268F1
:104C300002F04103012B09D111F0400306D0216C91
:104C4000204602B0BDE8B040084700BF930709D531
:104C500011F0800306D0616C204602B0BDE8B04080
:104C6000084700BF12F4B07F18BF11F0200301D134
:104C700002B0B0BD530618D594F85130032B09D1BA
:104C800000210191C168019180680190019802B0F2
:104C9000B0BD00BF636D43F004036365002301935F
:104CA000C368019383680193019B930604D4D205E2
:104CB00011D4626DDAB9DBE7636D43F0010363651C
:104CC0000023019383680193036823F0400303608A
:104CD000019BD205EDD5626D42F0080262650022AB
:104CE000019282680192019A626D002AC0D04268E6
:104CF000890722F0E00242604FF0010284F851205F
:104D000020D0416845F6316521F003014160E06C37
:104D1000C0F6000538B10565FDF7BEFC18B1606D41
:104D200040F040006065A06C0028A1D00565FDF74B
:104D3000B3FC00289CD0606D40F04000606502B07C
:104D4000B0BD00BF204602B0BDE8B040FFF768BF6D
:104D500070B538B10446406A30B10020206104F1DA
:104D6000140007E0012070BD6068B0F5827F03D0B9
:104D700004F11C00002101600026A66294F8510095
:104D800020B9204684F8506000F03CF8022084F8F6
:104D9000510094E80F0001F48271056802F40442A6
:104DA00025F040050560114403F4006223691144B5
:104DB00003F002026369114403F00102A369E5698B
:104DC000114403F40072114405F03802256A1144BD
:104DD00005F08002A56A114305F4005211430160F9
:104DE000626A042101EA134102F010021144416099
:104DF000C16921F40061C1610120666584F8510038
:104E0000304670BD016843F20000C4F201008142E7
:104E100018BF704780B586B0002143F6300201917B
:104E2000C4F20202536900F5504043F480535361C9
:104E3000536903F480530193019B0191136843F07C
:104E400001031360126802F001020192019AE0224C
:104E500001920222CDE9022103210491052105914D
:104E600001A9FDF723FE232003210022FDF786FF81
:104E70002320FDF771FF06B0BDE8804070470000B9
:104E80002DE9F04383B0044690F85000012803D187
:104E9000022003B0BDE8F08301201E4615460F46F0
:104EA00084F85000FDF7DEFE94F851108146012988
:104EB0000CD1002F4FF0010018BF002D14D100219C
:104EC00084F8501003B0BDE8F08300BF6068B0F50F
:104ED000827F40F0998004294FF00200EFD1A16851
:104EE0000029E6D0EBE700BF002EE8D094F851008F
:104EF000002104281CBF052084F851006165A563CA
:104F0000E687A6872763E6862068A6862164616413
:104F10000168490603D4016841F0400101606168FD
:104F2000731EE268B1FA81F1B3FA83F3DDF82880E9
:104F300049095B09B2F5006F41EA03016CD131B157
:104F400037F8021BC1602763E08E0138E086012537
:104F500018F1010031D101E0FDF784FEE08E18B9AF
:104F6000E08F002800F0C0802068816889070CD598
:104F7000E18E51B1012D08D1216B002531F8022BB2
:104F8000C2602163E18E0139E1868168C907E3D0FF
:104F9000E18F0029E0D0C068A16B012521F8020B48
:104FA000A163E08F0138E087D6E700BFFDF75AFE26
:104FB000A0EB0900404580F0AD80E08E18B9E08F8D
:104FC000002800F091802068816889070CD5E18E67
:104FD00051B1012D08D1216B002531F8022BC2609F
:104FE0002163E18E0139E1868168C907DED0E18F56
:104FF0000029DBD0C068A16B012521F8020BA16359
:10500000E08F0138E087D1E70220002184F85010BA
:1050100003B0BDE8F08300BF39B139780173206B6C
:1050200001302063E08E0138E086012518F101008F
:1050300032D101E0FDF716FEE08E10B9E08F0028B6
:1050400052D02068816889070ED5E18E61B1012DAB
:105050000AD1216B002509780173216B2068013189
:105060002163E18E0139E1868168C907E2D0E18FD1
:105070000029DFD0C068A16B01250870A06B01304A
:10508000A063E08F0138E087D4E700BFFDF7EAFDB9
:10509000A0EB090040453DD2E08E08B9E08F18B37F
:1050A0002068816889070ED5E18E61B1012D0AD192
:1050B000216B002509780173216B20680131216380
:1050C000E18E0139E1868168C907DFD0E18F0029CF
:1050D000DCD0C068A16B01250870A06B0130A06313
:1050E000E08F0138E087D1E72046022101224346C4
:1050F000CDF8009000F0A2FEB0B1606D40F020004D
:105100006065202060650120002184F8501003B004
:10511000BDE8F083012084F851000320002184F8C9
:10512000501003B0BDE8F08340F22400C2F200004A
:10513000006849F68171C1F25E61A0FB0101480D72
:105140004FF47A71484302906068B0F5827F21D1B4
:105150002046802100224346CDF8009000F06EFEEC
:105160000028CAD1A06838B9002001902068C16821
:105170000191806801900198606D00284FF0010056
:1051800004BF84F851000020002184F8501003B0BF
:10519000BDE8F08302980028E4D00298013802901C
:1051A000206880680006DDD502980028DAD00298D1
:1051B00001380290206880680006D3D50298002844
:1051C000D0D0029801380290206880680006C9D5C6
:1051D00002980028C6D002980138029020688068A2
:1051E0000006D7D4BEE70000411E0020B0EB116FCF
:1051F0001CBF012070474EF21002CEF20002516037
:105200004EF62351CEF20001F0230B70072190607F
:1052100011607047704700007047000090F83C2014
:10522000012A4FF0020241D010B580F83D200268FB
:10523000D2F804E0D2F808C00C682EF070032343C3
:1052400040F6FF34C4F20004A242536010DCB2F115
:10525000804F1ED040F20043C4F200039A4218D09F
:1052600040F60003C4F200039A4212D016E000BFD9
:1052700040F60043C4F200039A420AD044F200030D
:10528000C4F201039A4204D00023C4F201039A42FB
:1052900004D149682CF08003194391600121002258
:1052A00080F83D1080F83C20BDE810401046704763
:1052B000002804BF0120704710B5044690F83D0057
:1052C00028B9002084F83C00204600F01FF8022096
:1052D00084F83D002068211D00F0AEFE012084F816
:1052E000460084F83E0084F83F0084F8400084F8CB
:1052F000410084F8420084F8430084F8440084F8B4
:10530000450084F83D00002010BD0000006840F218
:105310000041C4F20001884218BF704780B582B0D6
:105320000020019043F64000C4F202000168002210
:1053300041F0020101600068012100F002000190CB
:1053400001981D20FDF71AFD1D2002B0BDE8804028
:10535000FDF702BD90F83D1001291CBF01207047E8
:10536000022180F83D10006840F6FF31C4F20001D0
:1053700088420FDCB0F1804F1DD040F20041C4F2F2
:105380000001884217D040F60001C4F200018842B3
:1053900011D017E040F60041C4F2000188420AD063
:1053A00044F20001C4F20101884204D00021C4F299
:1053B0000101884206D1816801F00701062904BF76
:1053C00000207047016841F0010101600020704732
:1053D00090F83C20012A4FF0020200F0C58080B511
:1053E00080F83D20D0F800C04FF67772DCF8083026
:1053F00023EA0202CCF808200B684F2B28DC1F2B75
:1054000044DD202B45D0302B43D0402B40F0AE80E4
:10541000D1F804E0C968DCF82030DCF8202022F064
:105420000102CCF82020DCF8182022F0F00242EA39
:10543000011123F00A0242EA0E02CCF81810CCF84F
:105440002020DCF8081041F0470121F0300180E015
:105450006F2B27DDB3F5005F48D0B3F5805F7AD0BE
:10546000702B40F08380D1E901E3C968DCF80820A3
:1054700043EA0E0322F47F4243EA01211143CCF8B0
:105480000810DCF8081041F0770162E00BB1102B36
:105490006CD1DCF8081021F07001194341F00701CC
:1054A00057E000BF502B35D0602B5FD1D1F804E01E
:1054B000C968DCF82030DCF8202022F01002CCF89B
:1054C0002020DCF8182022F4704242EA013123F057
:1054D000A00242EA0E12CCF81810CCF82020DCF81A
:1054E000081041F0670121F0100132E0D1E901E339
:1054F000C968DCF8082043EA0E0322F47F4243EA3D
:1055000001211143CCF80810DCF8081041F4804167
:105510001FE000BFD1F804E0C968DCF82030DCF8F7
:10552000202022F00102CCF82020DCF8182022F004
:10553000F00242EA011123F00A0242EA0E02CCF81C
:105540001810CCF82020DCF8081041F0570121F0A9
:105550002001CCF808100022012180F83D10002124
:1055600080F83C10BDE88040104670470122F3E708
:105570007047000070B504460068C5680669B10749
:1055800016D515F0020113D06FF00201016101215F
:1055900021778069800703D02046FFF7E9FF05E007
:1055A000204600F08FF8204600F08EF8002020778B
:1055B000700719D515F0040016D020686FF00401AB
:1055C000016102212177806910F4407F04D02046D8
:1055D000FFF7CEFF06E000BF204600F073F820463C
:1055E00000F072F800202077300717D515F008007A
:1055F00014D020686FF00801016104212177C0698F
:10560000800703D02046FFF7B3FF05E0204600F0F7
:1056100059F8204600F058F800202077F00619D5F8
:1056200015F0100016D020686FF0100101610821FC
:105630002177C06910F4407F04D02046FFF798FF1F
:1056400006E000BF204600F03DF8204600F03CF8A0
:1056500000202077F00718BF15F0010002D13006B6
:1056600009D412E020686FF001010161204600F0CA
:105670002DF8300609D515F0800006D020686FF0AF
:10568000800101612046FFF7C5FD700609D515F0C0
:10569000400006D020686FF040010161204600F014
:1056A00017F8B00658BF70BD15F0200008D021686B
:1056B0006FF0200220460A61BDE87040FFF7ACBDE4
:1056C00070BD000070470000704700007047000088
:1056D00070470000FEE7000040F2C811C2F200016E
:1056E0000020C1E90000886042F60401C2F2000116
:1056F0000880C1E903008882C1E908000885C1E982
:105700000D008887C1E91200A1F85000C1E9170017
:10571000A1F86400C1E91C00A1F87800C1E92100EA
:10572000A1F88C00C1E92600A1F8A000C1E92B0076
:10573000A1F8B400C1E93000A1F8C800C1E9350002
:10574000A1F8DC00C1E93A00A1F8F000C1E93F008E
:10575000A1F80401C1E94400A1F81801C1E9490018
:10576000A1F82C01C1E94E00A1F84001C1E95300A4
:10577000A1F85401C1E95800A1F86801C1E95D0030
:10578000A1F87C01C1E9620070470000B0B584B0A7
:1057900042F67040C2F2000042F200014FF0805227
:1057A0004FF000630024C4F201010125C0E90A3270
:1057B00003220394047680F82040C26180F83050C0
:1057C000C0E90014C0E90244C0E90455FCF766FDD5
:1057D000002818BFFCF776FB42F67040C2F20000CA
:1057E0006946CDE900550294FCF7DEFB002818BF9E
:1057F000FCF768FB0220CDE9000042F67040C2F2DF
:1058000000006946FCF7D0FB002818BFFCF75AFBE4
:105810000320CDE9000042F67040C2F20000694664
:10582000FCF7C2FB002818BFFCF74CFB04B0B0BD6E
:1058300080B582B00020019043F63000C4F202002F
:105840000168002241F4800101600068012100F438
:105850008000019001983820FDF790FA382002B0BE
:10586000BDE88040FDF778BA2DE9F04387B0002706
:1058700043F6300006970197C4F20200016840F237
:10588000000941F0040101600168C4F2020901F05D
:105890000401019101990197016809F5006541F042
:1058A000800101600168002201F0800101910199ED
:1058B000019701684FF4005641F001010160006852
:1058C0004FF4005100F00100019001982846FDF7C7
:1058D000C3F94846102100224FF01008FDF7BCF92B
:1058E000029602AE012428463146CDE903470597CA
:1058F000FDF7DCF848463146CDE902470494FDF750
:10590000D5F848463146CDE90284CDE90477FDF764
:10591000CDF807B0BDE8F08310B586B043F2FC10B7
:1059200042F600020021C2F20000C4F200027F230E
:10593000FF24CDE90211CDE90011C0E90021C0E941
:105940000234C0E904118161FEF736FF002818BF58
:10595000FCF7B8FA43F2FC10C2F200000021002468
:10596000FEF7F4FD41F2342188420DD143F2FC10E0
:10597000C2F200000021FEF7E9FD014620A006B0BA
:10598000BDE8104002F040BF43F61230ADF804000D
:1059900043F2FC10C2F2000001A900228DF806407B
:1059A000CDE90444FFF766F8002818BFFCF78AFA2F
:1059B00040F20110C1F20170009043F2FC10C2F2FB
:1059C000000069460022FEF7A3FF002818BFFCF77D
:1059D00079FA43F2FC10C2F2000000210022FEF727
:1059E000C1FD002818BFFCF76DFA43F2FC10C2F2AB
:1059F0000000002141F23422FEF7AEFD06B010BDDA
:105A000052544320424B502073746174696320499F
:105A100044203A200D0A000080B543F21C2043F2D6
:105A20000001C2F20000C4F201014FF482720023AF
:105A30004FF4007C80E80E000A21C0E90333C0E97E
:105A4000053CC361C0E90833C0E90A31FFF780F9BA
:105A5000002808BF80BDBDE88040FCF733BA0000D5
:105A600080B586B02020009043F2742040F20042BE
:105A70000021C2F20000C4F2000240F6B73342F245
:105A80000F7C0591CDE903110191C0E90023C0E924
:105A9000021C01618161FFF70BFC002818BFFCF7B5
:105AA00011FA4FF48050029043F27420C2F20000C9
:105AB00002A9FFF78DFC002818BFFCF703FA43F298
:105AC0007420C2F200006946FFF7A8FB002818BF47
:105AD000FCF7F8F906B080BD80B542F6941040F2AC
